:020000021000EC
:10F000000C9446F80C9465F80C9465F80C9465F82B
:10F010000C9465F80C9465F80C9465F80C9465F8FC
:10F020000C9465F80C9465F80C9465F80C9465F8EC
:10F030000C9465F80C9465F80C9465F80C9465F8DC
:10F040000C9465F80C9465F80C9465F80C9465F8CC
:10F050000C9465F80C9465F80C9465F80C9465F8BC
:10F060000C9465F80C9465F80C9465F80C9465F8AC
:10F070000C9465F80C9465F80C9465F80C9465F89C
:10F080000C9465F80C9465F80C9465F811241FBE77
:10F09000CFEFD0E4DEBFCDBF11E0A0E0B1E0E8EDFE
:10F0A000F7EF01E00BBF02C007900D92A230B1074D
:10F0B000D9F712E0A2E0B1E001C01D92AD30B10776
:10F0C000E1F70E9482F90C94EAFB0C9400F8982F67
:10F0D00080910201813019F0823041F008958091D1
:10F0E000C00085FFFCCF9093C60008958091C800B2
:10F0F00085FFFCCF9093CE0008951F93982F959590
:10F10000959595959595905D8F708A3054F4182F4C
:10F11000105D892F0E9467F8812F0E9467F81F9168
:10F120000895182F195A892F0E9467F8812F0E947D
:10F1300067F81F910895EF92FF920F931F938091AC
:10F140000201813069F1823031F080E01F910F912E
:10F15000FF90EF900895EE24FF2487018091C8006E
:10F1600087FD17C00894E11CF11C011D111D81E0F1
:10F17000E81689E0F8068DE3080780E0180770F3C9
:10F18000E0910401F091050109958091C80087FF85
:10F19000E9CF8091CE001F910F91FF90EF900895DD
:10F1A000EE24FF2487018091C00087FD17C00894DA
:10F1B000E11CF11C011D111D81E0E81689E0F80633
:10F1C0008DE3080780E0180770F3E0910401F091E7
:10F1D000050109958091C00087FFE9CF8091C600A5
:10F1E0001F910F91FF90EF9008951F930E949BF83D
:10F1F000182F0E9467F8113634F410330CF01053B6
:10F20000812F1F9108951755812F1F9108951F93E6
:10F210000E94F5F8182F0E94F5F81295107F810FC3
:10F220001F910895982F20910201992339F02130E0
:10F2300031F0223061F091509923C9F708958091FF
:10F24000C00087FFFCCF8091C6009150F5CF809120
:10F25000C80087FFFCCF8091CE009150EDCF1F9367
:10F26000182F0E949BF8803281F0809103018F5FFC
:10F2700080930301853011F01F910895E0910401FE
:10F28000F091050109951F91089584E10E9467F8A6
:10F29000812F0E9467F880E10E9467F81F9108950E
:10F2A0000E949BF8803271F0809103018F5F809300
:10F2B0000301853009F00895E0910401F091050102
:10F2C0000995089584E10E9467F880E10E9467F83B
:10F2D000089548EC50E08823A1F0289A28EE33E006
:10F2E000FA013197F1F721503040D1F7289828EEF4
:10F2F00033E0FA013197F1F721503040D1F78150D6
:10F3000061F70895FF920F931F93CF93DF9300004F
:10F3100081E08093020189E18093C4001092C500CE
:10F320001092C00086E08093C20088E18093C10003
:10F33000209A82E00E9469F9FF24F3940E949BF8CE
:10F340008033B1F18133B9F1803409F454C0813490
:10F3500009F45AC0823409F469C0853409F46CC0D8
:10F36000803531F1823521F1813511F1853509F48E
:10F3700069C0863509F471C0843609F47AC08437CF
:10F3800009F4E4C0853709F448C1863709F44AC056
:10F39000809103018F5F80930301853079F6E091BE
:10F3A0000401F091050109950E949BF8803351F604
:10F3B0000E9450F9C3CF0E949BF8803249F784E144
:10F3C0000E9467F881E40E9467F886E50E9467F86A
:10F3D00082E50E9467F880E20E9467F889E40E9453
:10F3E00067F883E50E9467F880E50E9467F880E18E
:10F3F0000E9467F8A3CF0E949BF88638C8F20E944B
:10F400009BF80E9450F99ACF0E949BF8803809F42B
:10F4100099C0813809F4FDC0823809F413C18839D4
:10F4200009F48CC080E00E942FF988CF84E10E940B
:10F4300012F90E9450F982CF85E00E9412F90E94D1
:10F4400050F97CCF0E949BF8809306010E949BF8A4
:10F45000809307010E9450F971CF0E949BF880337E
:10F4600009F404C183E00E9412F980E00E942FF9A0
:10F4700065CF0E949BF8809309020E949BF88093BD
:10F48000080280910C028E7F80930C020E949BF8F0
:10F49000853409F4FCC08091080290910902892BFF
:10F4A00089F000E010E00E949BF8F801E85FFE4F51
:10F4B00080830F5F1F4F8091080290910902081707
:10F4C000190788F30E949BF8803209F061CF809180
:10F4D0000C0280FFEEC02091060130910701220F3F
:10F4E000331F309307012093060180910802909109
:10F4F0000902892BE1F000E010E0F801E85FFE4F1F
:10F50000C90160810E94DCFB209106013091070156
:10F510002F5F3F4F30930701209306010F5F1F4F6E
:10F5200080910802909109020817190730F384E1CD
:10F530000E9467F880E10E9467F800CF83E00E9494
:10F540002FF9FCCE82E00E942FF9F8CE0E949BF8A2
:10F55000809309020E949BF8809308022091060183
:10F560003091070137FD9FC080910C028D7F809301
:10F570000C02220F331F30930701209306010E94D3
:10F580009BF8853409F489C080910C028E7F8093AA
:10F590000C020E949BF8803209F0D0CE84E10E94D8
:10F5A00067F88091080290910902892B09F446C0FE
:10F5B00000E010E0209106013091070117C0F90129
:10F5C00084910E9467F820910601309107012F5F16
:10F5D0003F4F30930701209306010F5F1F4F80912B
:10F5E0000802909109020817190740F580910C0252
:10F5F00080FD2CC081FFE3CFC901A0E0B0E08050C6
:10F600009040AF4FBF4FABBFFC0187910E9467F89E
:10F61000DACF81E00E942FF991CE0E949BF88032D0
:10F6200009F0B6CE84E10E9467F88EE10E9467F887
:10F6300087E90E9467F885E00E9467F880E10E94F0
:10F6400067F87CCE80E10E942FF978CEC9010E9434
:10F65000D4FB0E9467F820910601309107012F5FCB
:10F660003F4F3093070120930601B7CF0E949BF8CC
:10F670000E949BF8182F0E949BF8112309F48CC05C
:10F68000113009F48DC085E00E942FF957CE80918A
:10F690000C02816080930C02FECE80910C0281608E
:10F6A00080930C0276CF80910C02826080930C02D2
:10F6B00060CF809107018823880F880B8F2180936A
:10F6C0000B028BBF8091060190910701880F991F53
:10F6D00090930701809306018091080280FF09C082
:10F6E00080910802909109020196909309028093FB
:10F6F0000802F894F999FECF1127E0910601F091E4
:10F700000701C8E0D1E08091080290910902103011
:10F7100091F40091570001700130D9F303E0009398
:10F720005700E8950091570001700130D9F301E1CD
:10F7300000935700E89509901990009157000170C7
:10F740000130D9F301E000935700E8951395103884
:10F7500098F011270091570001700130D9F305E0AE
:10F7600000935700E8950091570001700130D9F3DC
:10F7700001E100935700E8953296029709F0C7CF50
:10F78000103011F00296E5CF112484E10E9467F851
:10F7900080E10E9467F8D2CD8EE10E942FF9CECD94
:10F7A00087E90E942FF9CACDF999FECF92BD81BD9C
:10F7B000F89A992780B50895262FF999FECF1FBA98
:10F7C00092BD81BD20BD0FB6F894FA9AF99A0FBE8A
:08F7D00001960895F894FFCFA3
:02F7D8008000AF
:040000031000F000F9
:00000001FF
