:10FC00000C94467E0C94657E0C94657E0C94657E07
:10FC10000C94657E0C94657E0C94657E0C94657ED8
:10FC20000C94657E0C94657E0C94657E0C94657EC8
:10FC30000C94657E0C94657E0C94657E0C94657EB8
:10FC40000C94657E0C94657E0C94657E0C94657EA8
:10FC50000C94657E0C94657E0C94657E0C94657E98
:10FC60000C94657E0C94657E0C94657E0C94657E88
:10FC70000C94657E0C94657E0C94657E0C94657E78
:10FC80000C94657E0C94657E0C94657E11241FBED9
:10FC9000CFEFD0E4DEBFCDBF11E0A0E0B1E0EAECF1
:10FCA000F4E001E00BBF02C007900D92A030B10755
:10FCB000D9F712E0A0E0B1E001C01D92A930B10770
:10FCC000E1F70E94D37F0C9463820C94007E282F6E
:10FCD000992787FD9095807F90709595879595954C
:10FCE000879595958795959587958A30C4F0382F97
:10FCF000395A822F8F708A307CF0982F995A8091D0
:10FD0000C00085FFFCCF3093C6008091C00085FF06
:10FD1000FCCF9093C6000895982F905DF0CF382FB8
:10FD2000305DE7CF982F8091C00085FFFCCF909386
:10FD3000C6000895EF92FF920F931F932898EE2428
:10FD4000FF2487018091C00087FD17C00894E11C43
:10FD5000F11C011D111D81E0E81689E0F8068DE314
:10FD6000080780E0180770F3E0910101F0910201AB
:10FD700009958091C00087FFE9CF289A8091C6003D
:10FD80001F910F91FF90EF9008951F930E949A7E0C
:10FD9000182F8091C00085FFFCCF1093C6000E94F1
:10FDA0009A7E982F8091C00085FFFCCF9093C6006B
:10FDB000113664F01755913674F490330CF090536B
:10FDC0001295107F892F810F1F91089510339CF396
:10FDD0001053913694F397551295107F892F810F08
:10FDE0001F910895282F882351F090E08091C00042
:10FDF00087FFFCCF8091C6009F5F9217B8F30895EC
:10FE00001F93182F0E949A7E803249F08091000142
:10FE10008F5F809300018530C1F01F91089580911C
:10FE2000C00085FFFCCF84E18093C6008091C000B4
:10FE300085FFFCCF1093C6008091C00085FFFCCFEA
:10FE400080E18093C6001F910895E0910101F09137
:10FE5000020109951F9108950E949A7E803241F017
:10FE6000809100018F5F80930001853081F00895BB
:10FE70008091C00085FFFCCF84E18093C600809113
:10FE8000C00085FFFCCF80E18093C6000895E0911B
:10FE90000101F091020109950895DF93CF9300D0FD
:10FEA00000D0CDB7DEB7882309F076C041E050E03E
:10FEB00020E030E0289A19821A821B821C828981F4
:10FEC0009A81AB81BC8180549F41A040B040A0F496
:10FED00089819A81AB81BC810196A11DB11D898365
:10FEE0009A83AB83BC8389819A81AB81BC81805426
:10FEF0009F41A040B04060F3289819821A821B826B
:10FF00001C8289819A81AB81BC8180509D47A04031
:10FF1000B040A0F489819A81AB81BC810196A11D7A
:10FF2000B11D89839A83AB83BC8389819A81AB811C
:10FF3000BC8180509D47A040B04060F32F5F3F4F91
:10FF4000241735070CF4B6CF19821A821B821C8243
:10FF500089819A81AB81BC8180589843A140B0408F
:10FF6000A0F489819A81AB81BC810196A11DB11D4C
:10FF700089839A83AB83BC8389819A81AB81BC815D
:10FF800080589843A140B04060F30F900F900F90BD
:10FF90000F90CF91DF910895482F50E04115510502
:10FFA00009F086CFD1CF2F923F924F925F926F92FE
:10FFB0007F928F929F92AF92BF92CF92DF92EF92F9
:10FFC000FF920F931F93CF93DF93000094B714BE5B
:10FFD000809160008861809360001092600091FFC2
:10FFE00058C28CE08093C4001092C50088E18093D1
:10FFF000C10086E08093C2005098589A209A83E00E
:020000021000EC
:100000000E944D7F81E00E944D7F44E1D42E3EE16D
:10001000C32E27E9B22E95E0A92E80E1982E01E4A7
:10002000802E16E5712EB2E56B2EA0E25A2EF9E471
:100030004F2EE3E53E2E70E5272E0E949A7E8033F8
:10004000B9F1813309F444C0803409F47CC08134AF
:1000500009F490C0823479F1853409F47EC080358A
:1000600039F1813509F4A6C1823511F1853509F4DC
:100070009EC0863509F490C0843609F4A3C0843745
:1000800009F441C1853709F41CC1863709F480C0E1
:10009000809100018F5F80930001853071F6E091BF
:1000A0000101F091020109950E949A7E803349F680
:1000B0000E942C7FC2CF90E08091C00087FFFCCFD0
:1000C0008091C6009F5F9431B9F70E942C7FB5CF15
:1000D0000E949A7E8032E1F68091C00085FFFCCFBD
:1000E000D092C6008091C00085FFFCCF8092C600F0
:1000F0008091C00085FFFCCF7092C6008091C00047
:1001000085FFFCCF6092C6008091C00085FFFCCFC8
:100110005092C6008091C00085FFFCCF4092C6007F
:100120008091C00085FFFCCF3092C6008091C00056
:1001300085FFFCCF2092C6008091C00085FFFCCFD8
:100140009092C6007ACF0E949A7E863808F4B0CF8B
:100150000E949A7E0E942C7F70CF90E08091C00018
:1001600087FFFCCF8091C6009F5F9530B9F70E9452
:100170002C7F63CF0E949A7E803809F49AC0813820
:1001800009F493C0823809F498C0883909F489C009
:1001900080E00E94007F51CF90E08091C00087FFF7
:1001A000FCCF8091C6009F5F9430B9F7F1CF0E94D9
:1001B0009A7E809303010E949A7E809304010E949C
:1001C0002C7F3BCF0E949A7E809306020E949A7EEB
:1001D00080930502809108028E7F809308020E941E
:1001E0009A7E853429F48091080281608093080208
:1001F00065E0E62E61E0F62EF701119281E0E53828
:10020000F807D9F78091050290910602892B89F0B1
:1002100000E010E00E949A7EF801EB5FFE4F8083C1
:100220000F5F1F4F80910502909106020817190772
:1002300088F30E949A7E803209F02ACF80910802CA
:1002400080FFC4C0609105027091060261157105BE
:10025000E9F040910301509104019A01FB01EB5F29
:10026000FE4FF999FECF32BD21BDD7018D917D01A1
:1002700080BDFA9AF99A2F5F3F4FAE17BF0789F7F3
:10028000460F571F50930401409303018091C00013
:1002900085FFFCCFD092C6008091C00085FFFCCFC7
:1002A0004FCF83E00E94007FC8CE81E00E94007F94
:1002B000C4CE82E00E94007FC0CE80E10E94007F19
:1002C000BCCE0E949A7E803209F0E2CE8091C000BE
:1002D00085FFFCCFD092C6008091C00085FFFCCF87
:1002E000C092C6008091C00085FFFCCFB092C600CE
:1002F0008091C00085FFFCCFA092C6008091C00015
:1003000085FFFCCF1DCF0E949A7E809306020E943B
:100310009A7E809305020E949A7E853409F450C02B
:10032000809108028E7F8093080280910301909152
:100330000401880F991F90930401809303010E9488
:100340009A7E803209F079CE8091C00085FFFCCF83
:10035000D092C600A0910502B0910602109709F450
:10036000ADC080910802182F1170082F0270E09123
:100370000301F09104019F012F5F3F4FB90140E05D
:1003800050E0112309F08BC0002339F4949180913F
:10039000C00085FFFCCF9093C6004F5F5F4FCB013D
:1003A0000196F9014A175B0708F084C0BC012F5F72
:1003B0003F4FE7CF0E942C7F88E080936000FFCF03
:1003C00080910802816080930802B9CF8091030177
:1003D00090910401880F991F909304018093030169
:1003E0008091050280FF09C080910502909106026C
:1003F00001969093060280930502F999FECF11278A
:10040000E0910301F0910401C5E0D1E08091050283
:1004100090910602103091F4009157000170013064
:10042000D9F303E000935700E8950091570001705D
:100430000130D9F301E100935700E8950990199034
:100440000091570001700130D9F301E0009357008B
:10045000E8951395103898F0112700915700017016
:100460000130D9F305E000935700E895009157005B
:1004700001700130D9F301E100935700E8953296FD
:10048000029709F0C7CF103011F00296E5CF112482
:10049000FDCEE0910101F09102010995A2CDF999FB
:1004A000FECFF2BDE1BDF89A90B58091C00085FF06
:1004B000FCCF71CF70930401609303018091C00061
:0A04C00085FFFCCF3DCEF894FFCF7E
:040000030000FC00FD
:00000001FF
